:100000000C9492000C94BA000C94BA000C94BA00B0
:100010000C94BA000C94BA000C94BA000C94BA0078
:100020000C94BA000C94BA000C945D070C94C703AE
:100030000C94BA000C94BA000C94BA000C94BA0058
:100040000C94BA000C94BA000C94BA000C94BA0048
:100050000C94BA000C94BA000C94BA000C941307D8
:100060000C94BA000C94D6020C94B0020C94BA0012
:100070000C94BA000C94BA000C94BA000C94BA0018
:100080000C94BA000C94BA000C94BA000C94BA0008
:100090000C94BA000C94BA000C94BA000C94BA00F8
:1000A0000C94BA000C94BA000C94BA00080B00022D
:1000B0000202010009040000010202000005240000
:1000C0001001052401010104240206052406000193
:1000D0000705810310004009040100020A00000026
:1000E00007050202400000070583024000000403E8
:1000F000090412010002EF02014041233680000191
:100100000102030141726475696E6F204C4C43001B
:1001100041726475696E6F204C656F6E6172646FB9
:1001200000006C0B11241FBECFEFDAE0DEBFCDBFA5
:1001300011E0A0E0B1E0E8E1F8E102C005900D9225
:10014000A43FB107D9F723E0A4EFB1E001C01D92AD
:10015000A139B207E1F710E0C2E9D0E004C021976D
:10016000FE010E94FF0BC139D107C9F70E94CF07DA
:100170000C940A0C0C940000FC01538D448D252F27
:1001800030E0842F90E0821B930B541710F0CF9631
:10019000089501970895FC01918D828D981761F063
:1001A000828DDF01A80FB11D5D968C91928D9F5FAE
:1001B0009F73928F90E008958FEF9FEF0895FC0159
:1001C000918D828D981731F0828DE80FF11D858D0C
:1001D00090E008958FEF9FEF0895FC01918D228D9F
:1001E000892F90E0805C9F4F821B91098F73992724
:1001F00008958EE492E00E94ED0021E0892B09F43D
:1002000020E0822F0895FC01848DDF01A80FB11D2D
:10021000A35ABF4F2C91848D90E001968F7399273C
:10022000848FA689B7892C93A089B1898C91806429
:100230008C93938D848D981306C00288F389E02DEA
:1002400080818F7D80830895EF92FF920F931F939B
:10025000CF93DF93EC0181E0888F9B8D8C8D981379
:1002600005C0E889F989808185FD24C0F62E0B8DB3
:1002700010E00F5F1F4F0F731127E02E8C8DE812D7
:100280000CC00FB607FCFACFE889F989808185FF99
:10029000F5CFCE010E940301F1CF8B8DFE01E80F57
:1002A000F11DE35AFF4FF0820B8FEA89FB898081B1
:1002B000806207C0EE89FF896083E889F9898081BF
:1002C0008064808381E090E0DF91CF911F910F9156
:1002D000FF90EF900895CF93DF93EC01888D8823F2
:1002E000C9F0EA89FB89808185FD05C0A889B989A3
:1002F0008C9186FD0FC00FB607FCF5CF808185FF7E
:10030000F2CFA889B9898C9185FFEDCFCE010E94EB
:100310000301E7CFDF91CF91089580E090E0892B32
:1003200029F00E94F90081110C9400000895CF93E8
:10033000DF931F92CDB7DEB76983DC01ED91FC91AD
:100340000280F381E02D41E050E0BE016F5F7F4FFE
:1003500009950F90DF91CF91089583E08093E90094
:100360008091F200882319F08AE38093E8000895D1
:10037000FC018485958597FD0BC09FB7F89482E0BA
:100380008093E9008091F2009FBF90E0019608956C
:100390009FB7F89482E08093E9008091F2009FBFBC
:1003A00090E0089580E090E00895CF93DC011696E8
:1003B000CC911697ED91FC910280F381E02D099587
:1003C000C150C81B8C2FCF9108958BE008950895DC
:1003D0008F929F92AF92BF92CF92DF92EF92FF9255
:1003E0000F931F93CF93DF936C015B017A01809190
:1003F0000B01882309F456C08091FD01882309F47C
:1004000051C08091FA0180FF05C08091E0008260B8
:100410008093E000E70110E00AEF83E0882E9AE382
:10042000992E2097B1F10E94D406811105C0015088
:10043000C9F10E94E506F5CF282F30E0C217D30797
:100440000CF48C2F4FB7F8948092E9009091E8005B
:1004500095FF1DC0282F30E0C21BD30BF501982F4C
:10046000915020F081918093F100FACFA20EB31E3B
:10047000112319F09092E80009C08091E80085FDF1
:1004800006C09092E80011E0209709F010E04FBFFD
:10049000C8CF1111C8CF5D9884E68093FB011E146C
:1004A0001F0444F081E090E0F6019383828380E0B2
:1004B00090E001C0C701DF91CF911F910F91FF9094
:1004C000EF90DF90CF90BF90AF909F908F90089566
:1004D0000E94D40690E00895CF93DF931F92CDB78A
:1004E000DEB7FC018485958597FD05C02FEF3FEFB2
:1004F000358724870BC0CE0101960E94AA0601977A
:1005000019F4898190E002C08FEF9FEF0F90DF9187
:10051000CF9108950F931F93CF93DF931F92CDB781
:10052000DEB78C01FC018485958597FF0EC0CE0156
:1005300001960E94AA06019719F4298130E002C0B1
:100540002FEF3FEFF80135872487F80184859585E3
:100550000F90DF91CF911F910F9108950E94050C8C
:100560001F920F920FB60F9211242F933F934F9328
:100570005F936F937F938F939F93AF93BF93EF930B
:10058000FF938EE492E00E940301FF91EF91BF91EF
:10059000AF919F918F917F916F915F914F913F911B
:1005A0002F910F900FBE0F901F9018951F920F92D2
:1005B0000FB60F9211242F938F939F93EF93FF9376
:1005C000E0915E02F0915F028081E0916402F0911F
:1005D000650282FD12C09081809167028F5F8F73E8
:1005E00020916802821751F0E0916702F0E0E25B2F
:1005F000FD4F958F8093670201C08081FF91EF913D
:100600009F918F912F910F900FBE0F901F90189573
:100610004091F8015091F9012091F6013091F701D4
:1006200042175307B4F49091E8009570E1F390916C
:10063000E80092FD19C08093F1008091F80190913B
:10064000F90101968F739927892B19F48EEF809306
:10065000E8008091F8019091F90101969093F901D9
:100660008093F80181E0089580E00895DF92EF9291
:10067000FF920F931F93CF93DF93D82E8A017B01B4
:10068000E40EF51EEB01CE15DF0571F0D7FE03C0B9
:10069000FE01849101C088810E9408032196811186
:1006A000F2CF8FEF9FEF01C0C801DF91CF911F9173
:1006B0000F91FF90EF90DF900895615030F02091FE
:1006C000F100FC0120830196F8CF289884E68093FE
:1006D000FC010895CF92DF92EF92FF920F931F9348
:1006E000CF93DF936C017A018B01C0E0D0E0CE158F
:1006F000DF0589F0D8016D918D01D601ED91FC9156
:100700000190F081E02DC6010995892B11F47E013D
:1007100002C02196ECCFC701DF91CF911F910F91BD
:10072000FF90EF90DF90CF9008950F931F93CF939A
:10073000DF931F92CDB7DEB782E0898342E450E0B9
:100740006CEA70E080E80E9436030E94FF06DC013C
:1007500012960D911C9113970115110569F0D8019E
:10076000ED91FC910280F381E02DBE016F5F7F4F20
:10077000C801099597FF07C089810F90DF91CF913C
:100780001F910F910895F80100851185E5CF1F9203
:100790000F920FB60F921124CF92DF92EF92FF9239
:1007A0000F931F932F933F934F935F936F937F9379
:1007B0008F939F93AF93BF93EF93FF93CF93DF9369
:1007C000CDB7DEB76C97DEBFCDBF1092E900809148
:1007D000E80083FFEDC168E0CE0145960E945D030D
:1007E00082EF8093E8008D8987FF05C09091E80033
:1007F00090FFFCCF03C09EEF9093E800982F907677
:1008000009F0C6C09E892F89188D91110CC08038BF
:1008100029F48091F5018093F10002C01092F1005B
:100820001092F10048C1422F50E0512B913051F409
:10083000811141C14130510509F03DC18091F5015F
:100840008D7F0BC0933061F4811135C1413051056A
:1008500009F031C18091F50182608093F5012BC1CF
:10086000953041F48091E80080FFFCCF2068209310
:10087000E30021C1963009F05FC0EB8CFC8C109234
:10088000E9001092F9011092F801123091F51092DE
:10089000F7011092F6010E94950399E0BE016F5F87
:1008A0007F4FDB01E92F1D92EA95E9F799831A83BF
:1008B00091E09E8390EA98879AEF99872091F801BA
:1008C0003091F901275F3F4F3C832B838D8310923A
:1008D000E9001092F9011092F801F092F701E0920C
:1008E000F60149E050E080E00E9436030E94950343
:1008F000E2C0F092F701E092F6010E94FF06DC01EF
:100900001296ED90FC901397E114F10409F4C0C025
:10091000D701ED91FC910480F581E02DBE016B5E65
:100920007F4FC7010995009719F00CF0C4C0C7C0EC
:10093000F701E084F184E8CF973009F4C0C0983023
:1009400021F481E08093F100B6C0993009F0B3C082
:10095000837009F0B4C0EDE0F1E081E021E036E31E
:100960009081992361F08093E9002093EB009191AD
:100970009093EC003093ED008F5F873089F78EE71E
:100980008093EA001092EA008F898093FD0193C062
:100990008B8D9C8D1092E9001092F9011092F80154
:1009A0009093F7018093F601898D811156C08E894D
:1009B0009D89913A59F4813209F081C047E050E0B5
:1009C00064E071E080E00E94360375C0913209F066
:1009D00076C0833289F4888D90E0982F88272F89FC
:1009E000822BA0E0B0E08093000190930101A093DE
:1009F0000201B09303015FC0803269F48091E80086
:100A000082FFFCCF67E084E091E00E945D038BEF02
:100A10008093E80006C0823209F04DC08F89809330
:100A20000B018091F401882319F0EEEFFAE002C087
:100A3000E0E0F8E08091040190910501A0910601A9
:100A4000B0910701803B9440A105B10509F07BC03E
:100A500080910B0180FF93C076C00E94FF06DC01ED
:100A600012960D911C9113970115110541F1D801B2
:100A7000ED91FC910190F081E02DBE016B5E7F4F06
:100A8000C8010995811117C0F80100851185ECCFC7
:100A9000113009F44EC0133091F48F89882309F482
:100AA00045C0823081F440E860E180E191E00E943D
:100AB0002F0B882321F08EEF8093E80079C081E22C
:100AC0008093EB0075C0813029F440E86BE084E04E
:100AD00091E0EDCF833099F70E94FF06DC0112967A
:100AE000ED90FC9013978E010F5F1F4F6801E1148A
:100AF000F10479F0D701ED91FC910680F781E02DAA
:100B0000B801C7010995080F111DF701E084F184B0
:100B1000EECFD8011C92F60101900020E9F7319741
:100B2000BF016C197D0940E0C601C1CF6EEE70E0D7
:100B300002C062EF70E06115710509F2FB0144919A
:100B400050E080E840CF0FB6F894A89580916000FF
:100B5000886180936000109260000FBEA895EE3F00
:100B60002AE0F20739F08091FE0A9091FF0A918302
:100B70008083A1CF1092FF0A1092FE0A9CCFEE3F15
:100B80008AE0F80731F0808191819093FF0A809389
:100B9000FE0A87E797E7918380839BE088E10FB6A1
:100BA000F894A895809360000FBE9093600083CF67
:100BB0006C960FB6F894DEBF0FBECDBFDF91CF911C
:100BC000FF91EF91BF91AF919F918F917F916F9125
:100BD0005F914F913F912F911F910F91FF90EF9057
:100BE000DF90CF900F900FBE0F901F9018953FB7DA
:100BF000F8948091810390918203A0918303B09136
:100C0000840326B5A89B05C02F3F19F00196A11DAE
:100C1000B11D3FBFBA2FA92F982F8827820F911D92
:100C2000A11DB11DBC01CD0142E0660F771F881FD9
:100C3000991F4A95D1F70895BC01009791F0FC01E6
:100C400001900020E9F73197AF01481B590BE09163
:100C5000FE01F091FF010280F381E02D8EEF91E023
:100C6000099480E090E008958F929F92AF92BF9296
:100C70000F931F93CF93DF93CDB7DEB7A1970FB636
:100C8000F894DEBF0FBECDBF19A2423008F44AE08F
:100C90008E010F5D1F4F842E912CA12CB12CA5012C
:100CA00094010E94DD0BE62FB901CA010150110920
:100CB000EA3014F4E05D01C0E95CD801EC93232B29
:100CC000242B252B61F7C8010E941C06A1960FB6A4
:100CD000F894DEBF0FBECDBFDF91CF911F910F9172
:100CE000BF90AF909F908F900895CF93DF930E9415
:100CF0001C06EC0187E891E00E941C068C0F9D1FEA
:100D0000DF91CF910895CF92DF92EF92FF92CF9330
:100D1000DF936B017C01E091FE01F091FF010190F6
:100D2000F081E02D6DE28EEF91E00995EC016627F0
:100D30007727CB016C197D098E099F094AE00E9433
:100D400034068C0F9D1FDF91CF91FF90EF90DF90C5
:100D5000CF900895FC018091FD01811103C08FEFB8
:100D60009FEF08959FB7F89482E08093E900209167
:100D7000F20030E01216130614F421E030E02115E1
:100D8000310559F0289884E68093FC018091F100A8
:100D900080838091F200882319F09FBFC9010895D4
:100DA0008BE68093E800F9CF2FB7F89483E0809327
:100DB000E9009091E800892F807295FF04C090911E
:100DC000F20080E4891B2FBF0895CF92DF92EF924B
:100DD000FF920E94F7056B017C010E94F705DC0180
:100DE000CB018C199D09AE09BF09883E9340A1052E
:100DF000B10598F3FF90EF90DF90CF900895809128
:100E0000890381110DC082E08093850384E0809383
:100E10008603109288031092870381E080938903F0
:100E200085E893E008951F920F920FB60F92112458
:100E30002F933F938F939F93AF93BF9380917D03A5
:100E400090917E03A0917F03B091800330917C0349
:100E500023E0230F2D3720F40196A11DB11D05C0FD
:100E600026E8230F0296A11DB11D20937C038093D9
:100E70007D0390937E03A0937F03B09380038091C2
:100E8000810390918203A0918303B0918403019622
:100E9000A11DB11D8093810390938203A0938303CE
:100EA000B0938403BF91AF919F918F913F912F9108
:100EB0000F900FBE0F901F9018951F920F920FB6B4
:100EC0000F9211248F939F938091E1009091E10004
:100ED000937F9093E10083FF0FC01092E90091E0AF
:100EE0009093EB001092EC0092E39093ED0010923F
:100EF000FD0198E09093F00082FF20C093E0909372
:100F0000E9009091F200992319F09AE39093E80098
:100F10009091FB01992339F09091FB0191509093AE
:100F2000FB01992389F19091FC01992339F090916B
:100F3000FC0191509093FC01992341F184FF10C072
:100F40008091E2008E7E81608093E2008091E100DA
:100F50008F7E8093E1008091FA018E7E806111C0C6
:100F600080FF16C08091E2008E7E80618093E20057
:100F70008091E1008E7E8093E1008091FA018E7E67
:100F800081608093FA0104C05D9ACDCF289AD6CFB4
:100F90009F918F910F900FBE0F901F90189578948E
:100FA00084B5826084BD84B5816084BD85B582606E
:100FB00085BD85B5816085BD80916E00816080931F
:100FC0006E00109281008091810082608093810088
:100FD0008091810081608093810080918000816098
:100FE0008093800080919100826080939100809135
:100FF0009100816080939100809190008160809346
:1010000090008091C10084608093C1008091C100F4
:1010100082608093C1008091C10081608093C10093
:101020008091C30081608093C3008091C000826082
:101030008093C0008091C20081608093C200809143
:101040007A00846080937A0080917A008260809335
:101050007A0080917A00816080937A0080917A0092
:10106000806880937A001092FD011092F501109231
:10107000FA018091D70081608093D70080EA809345
:10108000D80089B5806189BD89B5826089BD09B400
:1010900000FEFDCF0E94E5068091D8008F7C806124
:1010A0008093D8008091E000807F8093E000809161
:1010B000E1008E7E8093E1008DE08093E200559AFE
:1010C000209AEEEFFFE7859194918B3F9C4D19F4A8
:1010D00081E08093F401E0915E02F0915F0282E092
:1010E0008083E0915A02F0915B021082E0915C02F1
:1010F000F0915D028FEC808310926602E0916202B3
:10110000F091630286E08083E0916002F0916102D9
:10111000808180618083E0916002F0916102808132
:1011200088608083E0916002F09161028081806834
:101130008083E0916002F091610280818F7D8083E5
:101140008EE492E090937B0380937A038FEF9FEF7E
:1011500090930B0280930A02D0E282E0B82EC1E0A5
:1011600093E0A92E24E0922E80910503811144C2C0
:1011700080910603811140C202C0C0930703809191
:101180007A0390917B03DC01ED91FC910084F18561
:10119000E02D0995892B09F4A2C080917A039091E2
:1011A0007B03DC01ED91FC910284F385E02D099530
:1011B0008093090390910803992311F18E3719F454
:1011C000A09206038CC08D37D9F480917A03909158
:1011D0007B03DC01ED91FC910084F185E02D099504
:1011E000892B59F280917A0390917B03DC01ED9178
:1011F000FC910284F385E02D09958D2780930903E6
:1012000080910703882339F0809109038D2780930B
:1012100009031092070380910803833038F020916E
:10122000090390910A03920F90930A038130A1F071
:1012300058F08230C1F08330E9F480910903809343
:101240000003909208039BCF809109038E3709F029
:1012500096CFC093080393CF809109038093010335
:10126000B09208038CCF8091090380930203A0926F
:10127000080385CF8F3618F0B092060330C0282FB0
:1012800030E04091020350E04D5F5F4F2417350777
:10129000A9F490910A039F3F49F490910903909318
:1012A0000303C09305031092060302C0C093060314
:1012B0008450809304031092080311C080910903A5
:1012C000E091FE02F091FF022E0F3F1FF9013497CB
:1012D0008083809108038F5F8093080350CF8091B3
:1012E0000503882309F471C180910003823909F054
:1012F0005FC1E091FE02F091FF02F093EE02E093F5
:10130000ED028093EF02C093F40280910303809377
:10131000F202809106038093F5028091040380938A
:10132000F302809101038093F00280910203809385
:10133000F102808190E0A0E0B0E0782F6627552789
:1013400044279181892F90E0A0E0B0E0DC0199274B
:101350008827840F951FA61FB71F2381820F911D19
:10136000A11DB11D228130E0322F2227820F931F51
:10137000A11DB11D8093F6029093F702A093F8028D
:10138000B093F902848190E0A0E0B0E0782F662766
:10139000552744279581892F90E0A0E0B0E0DC013B
:1013A00099278827840F951FA61FB71F2781820FB3
:1013B000911DA11DB11D268130E0322F2227820F01
:1013C000931FA11DB11D8093FA029093FB02A0937D
:1013D000FC02B093FD028FE391E00E941C06609135
:1013E000F6027091F7028091F8029091F90240E1C3
:1013F0000E9434066091FA027091FB028091FC0217
:101400009091FD0240E10E94340689E891E00E943B
:101410007506E091ED02F091EE0286858F7821F05D
:101420008AE591E00E947506E091ED02F091EE02EE
:1014300084858C7109F0F5C085858111F2C0C12CBD
:10144000D12C76018601E091ED02F091EE028685C5
:101450008F7890E00C2C02C0959587950A94E2F75E
:1014600080FF41C086E791E00E941C064AE0C70168
:10147000B6010E94340681E891E00E941C06E091CA
:10148000ED02F091EE0284858C7129F4858581113D
:1014900002C04FE001C041E120E030E020173107F9
:1014A00071F086858F7890E0022E02C09595879521
:1014B0000A94E2F780FD4E5F2F5F3F4FEFCFE40FBE
:1014C000F11D608170E0762F662781819B01280FD6
:1014D000311DB90180E090E04AE00E94340687E8BF
:1014E00091E00E941C063FEFC31AD30AE30AF30AF5
:1014F00085E0C816D104E104F10409F0A3CFC12CA2
:10150000D12C7601E091ED02F091EE02A8E0CA162E
:10151000D104E104F10458F4858590E00C2C02C05C
:10152000959587950A94E2F780FF35C00FC0860134
:101530000850110984858C7190E0002E02C09595A9
:1015400087950A94E2F780FF26C070C088EE91E08C
:101550000E941C064AE0C701B6010E94340681E8D9
:1015600091E00E941C06E091ED02F091EE0280896C
:1015700090E00C2C02C0959587950A94E2F7817053
:10158000682F70E080E090E04AE00E94340687E82F
:1015900091E00E941C06BFEFCB1ADB0AEB0AFB0AA4
:1015A0002DE0C216D104E104F10409F0ABCF21C053
:1015B0008AE891E00E941C066091000370E080E0E0
:1015C00090E040E10E94340614C080910603882315
:1015D00081F088EA91E00E941C066091060370E0A9
:1015E00080E090E04AE00E94340687E891E00E94A3
:1015F0001C060E948D01B8CD1092080310920703BB
:1016000010920A031092050310920603109203032E
:10161000109200031092010310920203109204032F
:10162000AECD8CEC91E00E94750609CF88EE91E07A
:101630000E941C064AE0C701B6010E94340681E8F8
:1016400091E00E941C06E091ED02F091EE02878588
:1016500090E002C0959587950A95E2F790CFCF92DA
:10166000DF92EF92FF920F931F93CF93DF931F921E
:10167000CDB7DEB7182F062FE42E862F880F8E5F8A
:1016800099830E94080383E00E940803F12EC12E73
:101690009981D92E8C2D8F19801798F4F601E7FEC9
:1016A00002C0849101C080810E940803182F80E04D
:1016B0000E9408038123FFEFCF1ADF0A8111EACFCE
:1016C00001C081E00F90DF91CF911F910F91FF90AA
:1016D000EF90DF90CF900895EEE4F2E01382128253
:1016E00048EE53E060E070E044835583668377837F
:1016F00087E191E0918380838DEC90E095878487EA
:101700008CEC90E09787868788EC90E0918B808BBB
:1017100089EC90E0938B828B8AEC90E0958B848BA4
:101720008EEC90E0978B868B118E128E138E148E1A
:10173000AEEFB1E013961C921E92129714964D9341
:101740005D936D937C93179789E291E011969C933A
:101750008E938FEF9FEF1D969C938E931C97AEEF09
:10176000B2E01A961C921A9719961C9219971C9619
:101770001C921C971D961C921D9717961C921797EA
:1017800018961C92189715961C9215978CE093E06A
:101790008D939C93F0937B03E0937A03EBEEF2E05E
:1017A00013861486158616861786108A118A128A61
:1017B0008BE391E0918380830895A1E21A2EAA1B06
:1017C000BB1BFD010DC0AA1FBB1FEE1FFF1FA217F1
:1017D000B307E407F50720F0A21BB30BE40BF50BEE
:1017E000661F771F881F991F1A9469F76095709577
:1017F000809590959B01AC01BD01CF010895EE0F3E
:10180000FF1F0590F491E02D099481E090E0F89499
:081810000C940A0CF894FFCFC0
:10181800FFFFFFFF00E100000000000000C1808121
:101828000000000000000024016A03BC006B01ED09
:1018380000CB00DF00000000009701E8016802AD5E
:1018480001B8016C028A0200000000D501E50152CE
:101858006563656976656420492F4F2053616D7013
:101868006C652066726F6D3A200053616D706C650F
:1018780020636F6E7461696E7320616E616C6F674F
:10188800206461746100416E616C6F672028414972
:10189800002920697320000D0A004578706563747B
:1018A800656420492F4F2053616D706C652C206250
:1018B800757420676F7420004572726F72207265AC
:1018C8006164696E67207061636B65742E202045C2
:1018D80072726F7220636F64653A200053616D7095
:1018E8006C6520636F6E7461696E732064696774D8
:1018F800616C2064617461004469676974616C207B
:041908002844490026
:00000001FF
